{
  "contractName": "IotAuthentication",
  "abi": [
    {
      "inputs": [
        {
          "internalType": "address",
          "name": "device",
          "type": "address"
        }
      ],
      "name": "authorizeDevice",
      "outputs": [],
      "stateMutability": "nonpayable",
      "type": "function"
    },
    {
      "inputs": [
        {
          "internalType": "address",
          "name": "device",
          "type": "address"
        }
      ],
      "name": "deauthorizeDevice",
      "outputs": [],
      "stateMutability": "nonpayable",
      "type": "function"
    },
    {
      "inputs": [
        {
          "internalType": "address",
          "name": "device",
          "type": "address"
        }
      ],
      "name": "isAuthorized",
      "outputs": [
        {
          "internalType": "bool",
          "name": "",
          "type": "bool"
        }
      ],
      "stateMutability": "view",
      "type": "function",
      "constant": true
    }
  ],
  "bytecode": "0x608060405234801561001057600080fd5b506102b3806100206000396000f3fe608060405234801561001057600080fd5b50600436106100415760003560e01c80631e25074914610046578063933eb9ca14610062578063fe9fbb801461007e575b600080fd5b610060600480360381019061005b919061021a565b6100ae565b005b61007c6004803603810190610077919061021a565b610108565b005b6100986004803603810190610093919061021a565b610162565b6040516100a59190610262565b60405180910390f35b60008060008373ffffffffffffffffffffffffffffffffffffffff1673ffffffffffffffffffffffffffffffffffffffff16815260200190815260200160002060006101000a81548160ff02191690831515021790555050565b60016000808373ffffffffffffffffffffffffffffffffffffffff1673ffffffffffffffffffffffffffffffffffffffff16815260200190815260200160002060006101000a81548160ff02191690831515021790555050565b60008060008373ffffffffffffffffffffffffffffffffffffffff1673ffffffffffffffffffffffffffffffffffffffff16815260200190815260200160002060009054906101000a900460ff169050919050565b600080fd5b600073ffffffffffffffffffffffffffffffffffffffff82169050919050565b60006101e7826101bc565b9050919050565b6101f7816101dc565b811461020257600080fd5b50565b600081359050610214816101ee565b92915050565b6000602082840312156102305761022f6101b7565b5b600061023e84828501610205565b91505092915050565b60008115159050919050565b61025c81610247565b82525050565b60006020820190506102776000830184610253565b9291505056fea264697066735822122073a5bf06b7aed9f4b3c65f5d41d01fa65f6d549fbb45f28b9abe4a34ba996a7864736f6c63430008130033",
  "immutableReferences": {},
  "source": "pragma solidity ^0.8.0;\r\n\r\ncontract IotAuthentication {\r\n    mapping (address => bool) private authorizedDevices;\r\n\r\n    function authorizeDevice(address device) public {\r\n        authorizedDevices[device] = true;\r\n    }\r\n\r\n    function deauthorizeDevice(address device) public {\r\n        authorizedDevices[device] = false;\r\n    }\r\n\r\n    function isAuthorized(address device) public view returns (bool) {\r\n        return authorizedDevices[device];\r\n    }\r\n}\r\n",
  "sourcePath": "C:\\Users\\venky\\OneDrive\\Desktop\\Iot-Auth\\contracts\\IotAuthentication.sol",
  "compiler": {
    "name": "solc",
    "version": "0.8.19+commit.7dd6d404.Emscripten.clang"
  },
  "schemaVersion": "3.4.13",
  "updatedAt": "2023-03-10T07:04:56.539Z",
  "networkType": "ethereum",
  "devdoc": {
    "kind": "dev",
    "methods": {},
    "version": 1
  },
  "userdoc": {
    "kind": "user",
    "methods": {},
    "version": 1
  }
}